:040000050834101992
:02000004603466
:1004000000D00F2419103408310F3408390F340884
:10041000550F34086D0F3408850F340800000000B4
:10042000000000000000000000000000A30F3408DE
:100430000000000000000000AB0F3408B30F3408C8
:100440009D0F34089D0F34089D0F34089D0F34080C
:100450009D0F34089D0F34089D0F34089D0F3408FC
:100460009D0F34089D0F34089D0F34089D0F3408EC
:100470009D0F34089D0F34089D0F34089D0F3408DC
:100800009D0F3408F8B500BFF8BC08BC9E46704781
:10081000F8B500BFF8BC08BC9E467047C10D34084F
:10082000990D34081B5B324A1B5B3B4800000000FB
:100830002A2A2A2A2A2A2A2A2A2A2A2A2A2A2A2A18
:100840002A2A2050534F432045646765204D435565
:100850003A2048656C6C6F20776F726C64202A2A8E
:100860002A2A2A2A2A2A2A2A2A2A2A2A2A2A2A2AE8
:10087000200D0A0048656C6C6F20576F726C642104
:100880000D0A0000466F72206D6F72652070726FE6
:100890006A656374732C207669736974206F75724E
:1008A00020636F6465206578616D706C657320727C
:1008B00065706F7369746F726965733A0D0A000031
:1008C00068747470733A2F2F6769746875622E6349
:1008D0006F6D2F496E66696E656F6E2F436F64652D
:1008E0002D4578616D706C65732D666F722D4D6F3F
:1008F000647573546F6F6C626F782D536F66747785
:100900006172650D0A000000000100000100000096
:1009100001000000000000000A00000008000000C4
:1009200000020000000000000000000000000000C5
:1009300000000000000000000000000000000000B7
:100940000B000000000000003F000000000000005D
:100950003F00000000000000080934087009340856
:1009600000009A4258093408060700FFFF00000003
:10097000D116340825173408E716340800002A4237
:1009800000001D4400000000000000000000000006
:100990000000000000000000000000000000000057
:1009A000000000000A00000009000000050000002F
:1009B000060000000A0000000D0000000100000019
:1009C0000B0000000D000000010000000700000007
:1009D000050000000600000000000000020000000A
:1009E000494E4600696E66004E414E006E616E00D3
:1009F00030003031323334353637383941424344B0
:100A00004546003031323334353637383961626328
:100A100064656600496E66696E697479004E614E60
:100A2000005245454E54206D616C6C6F63207375A8
:100A300063636565646564002F646174612F6A6532
:100A40006E6B696E732F776F726B73706163652F56
:100A5000474E552D746F6F6C636861696E2F6172BC
:100A60006D2D31312F7372632F6E65776C69622D36
:100A700063796777696E2F6E65776C69622F6C6931
:100A800062632F7374646C69622F64746F612E6388
:100A90000042616C6C6F63207375636365656465A8
:100AA00064002F646174612F6A656E6B696E732FC9
:100AB000776F726B73706163652F474E552D746F3E
:100AC0006F6C636861696E2F61726D2D31312F73A8
:100AD00072632F6E65776C69622D63796777696ED3
:100AE0002F6E65776C69622F6C6962632F73746413
:100AF0006C69622F6D707265632E630000000000E8
:100B00000080E03779C34143176E05B5B5B8934609
:100B1000F5F93FE9034F384D321D30F94877825AD5
:100B20003CBF737FDD4F1575000000000000F03FF3
:100B300000000000000024400000000000005940B8
:100B40000000000000408F40000000000088C3400B
:100B500000000000006AF8400000000080842E4180
:100B600000000000D01263410000000084D79741CC
:100B70000000000065CDCD41000000205FA00242D2
:100B8000000000E876483742000000A2941A6D4247
:100B9000000040E59C30A2420000901EC4BCD6423A
:100BA00000003426F56B0C430080E03779C34143E5
:100BB00000A0D8855734764300C84E676DC1AB435B
:100BC000003D9160E458E143408CB5781DAF154479
:100BD00050EFE2D6E41A4B4492D54D06CFF0804454
:100BE000F64AE1C7022DB544B49DD9794378EA4469
:100BF00005000000190000007D00000000202020FA
:100C000020202020202028282828282020202020BC
:100C1000202020202020202020202020208810108C
:100C200010101010101010101010101010040404E8
:100C300004040404040404101010101010104141A6
:100C40004141414101010101010101010101010194
:100C500001010101010101011010101010104242A8
:100C60004242424202020202020202020202020264
:100C70000202020202020202101010102000000004
:100C80000000000000000000000000000000000064
:100C90000000000000000000000000000000000054
:100CA0000000000000000000000000000000000044
:100CB0000000000000000000000000000000000034
:100CC0000000000000000000000000000000000024
:100CD0000000000000000000000000000000000014
:100CE0000000000000000000000000000000000004
:100CF00000000000000000000000000000232D3074
:100D00002B2000686C4C0065666745464700430031
:100D1000504F534958002E002C2066756E6374693D
:100D20006F6E3A2000617373657274696F6E202272
:100D3000257322206661696C65643A2066696C657A
:100D400020222573222C206C696E65202564257372
:100D500025730A000348044B834202D0034B03B1BE
:100D6000184770477CD50B247CD50B24000000006D
:100D7000064B0749C91A891048BF0131491003D0F1
:100D8000044B0BB101481847704700BF7CD50B24BA
:100D90007CD50B240000000010B5064C237843B925
:100DA000FFF7D8FF044B13B10448AFF300800123D1
:100DB000237010BD7CD50B2400000000C052050438
:100DC00008B5054B1BB105490548AFF30080BDE8E8
:100DD0000840FFF7CDBF00BF0000000080D50B2406
:100DE000C0520504A3F5803A704700BF174B002B93
:100DF00008BF134B9D46FFF7F5FF00218B460F46BA
:100E00001348144A121A03F0D7FD0E4B002B00D0E2
:100E100098470D4B002B00D098470020002104007C
:100E20000D000D48002802D00C48AFF3008003F0FD
:100E300015FE2000290000F013F802F04BFF00BF60
:100E400000000800000000006510340800D00F24E6
:100E50007CD50B2494D70B24000000000000000078
:100E600008B500F06DF910B172B601BEFEE762B6CA
:100E700000F030F80D4803F059FC0D4803F0BCFCBD
:100E80000C4803F0B9FC0C4803F0B6FC0B4803F027
:100E9000B3FC0A220A490B4800F084F90A4B0122EC
:100EA000DA604FF47A7005F0E7FCF7E724083408BD
:100EB000300834087408340884083408C00834083A
:100EC0000004586000001644000A814272B601BE58
:100ED000FEE7000008B5104A1049114800F072FE04
:100EE00098B90F4A136843F00043136000230A4A7D
:100EF0000C490D4800F0BAFC48B90B4802F08AF8DA
:100F000038B90A4801F0C4FF08BDFFF7DFFFFFF75B
:100F1000DDFFFFF7DBFF00BF98D50B241409340871
:100F200000009A4260093408D4D50B2454D30B2412
:100F30000ABEFEE770470000EFF3148010F0020FC6
:100F40000CBFEFF30880EFF30980014908477047B1
:100F50005D103408EFF3148010F0020F0CBFEFF3B4
:100F60000880EFF3098000F079B87047EFF3148040
:100F700010F0020F0CBFEFF30880EFF3098000F0D0
:100F80006DB87047EFF3148010F0020F0CBFEFF351
:100F90000880EFF3098000F061B8704701BEFEE7FA
:100FA000704708B505F05CFC08BD08B505F058FCB5
:100FB00008BD08B505F054FC08BD704708B5124AD5
:100FC0000AE01068516850F8230041F8230001330B
:100FD00091688B42F5D30C320C4B9A4201D200231C
:100FE000F6E70B4A08E01168002041F823000133BE
:100FF00051688B42F7D30832064B9A4201D2002344
:10100000F6E7FFF7F3FE00BF88683408AC683408E1
:10101000AC683408B468340808B572B6002306E03A
:101020000A4A52F823100A4A42F823100133D42BFB
:10103000F6D9074A074B9A60BFF35F8F064B83F3DD
:101040000A8800F04FF8FFF7B9FF00BF000434082A
:1010500000D00B2400ED00E000C00F2408B505F01F
:10106000F7FB08BD08B5FFF7A8FF08BD70470000F3
:1010700010B5002001F04FFD114C2060114B18609D
:101080000A2001F048FD104B186023680F4A1360D6
:1010900003F5742202F23F220D49A1FB0212920CC9
:1010A0000C490A6003F2E7330B4AA2FB03239B09B6
:1010B0000A4A1360002001F02EFD094B186010BD94
:1010C00098D30B24A0D30B24A4D30B24A8D30B2494
:1010D00083DE1B43B0D30B24D34D6210ACD30B245F
:1010E0009CD30B2408B5044800F028FCFFF7BEFF92
:1010F000FFF7BEFF08BD00BF8409340808B500F043
:1011000007F800F006F800F005F800F004F808BD54
:10111000704770477047704708B5074801F09AFA62
:10112000064801F06FFAFFF7A3FF01F0A5FE0120CA
:1011300001F09EFE08BD00BF0080060100366E0172
:1011400008B5FFF7E9FFFFF7D9FF002008BD034608
:1011500008B19868704701BEFBE7000070B50D4606
:10116000044698B105F078FB0646626822F0010259
:101170001204120C0A4B134363604DB9636813F0F9
:10118000010FFBD1304605F06FFB70BD01BEE9E7F2
:10119000636813F0010FF5D0A8B205F069FBF1E721
:1011A0000100FA052DE9F8430F469146064690B135
:1011B000C7F3090303B101BE05F04EFB80460621CB
:1011C000042001F0CDFD0821224801F0E9FD1024A2
:1011D0004FF0904305E001BEEAE7002543F8045BC9
:1011E000013C002CF9D13046FFF7B1FFF0B106F514
:1011F00080535F60726822F001021204120C164BD9
:1012000013437360B9F1000F19D13046FFF79FFF08
:101210000028FAD1336823F0100333600F23C6F897
:10122000C030404605F020FBBDE8F883336843F04A
:10123000100333600A213046FFF790FFD7E73046AE
:10124000FFF785FF0028E5D01FFA89F005F010FBB5
:10125000E0E700BF001010440100FA0510B4036875
:10126000002B41D0426890F808C0072A00D901BE7F
:101270003CF01F0100D001BE03F13D4101F5FE012C
:10128000C90901F1856109014A4CA3420ED080349D
:10129000A3420BD08034A34208D0474CA34205D0D0
:1012A0008034A34202D08034A3420ED143498B4202
:1012B0005FD94FF480215B1A03F13B4303F53903F7
:1012C0003F4C04EBD31301EB0311032A53D80B68F3
:1012D000D2001F24944023EA04030CF01F0C0CFAE4
:1012E00002FC43EA0C030B60C368002B3ED002698A
:1012F000007D072A00D901BE30F01F0100D001BED9
:1013000003F13D4101F5FE01C90901F185610901C2
:10131000284CA3420ED08034A3420BD08034A34289
:1013200008D0254CA34205D08034A34202D080349B
:10133000A3420ED121498B422CD94FF480215B1A54
:1013400003F13B4303F539031D4C04EBD31301EBCD
:101350000311032A20D80B68D2001F24944023EAEB
:10136000040300F01F00904003430B605DF8044B42
:10137000704700219FE7043A4B68D2001F24944035
:1013800023EA04030CF01F0C0CFA02FC43EA0C03E2
:101390004B60A9E70021D2E7043A4B68D2001F2432
:1013A000944023EA040300F01F00904003434B6085
:1013B000DCE700BF0000474400004B44FFFF4A4405
:1013C0000064440438B5044645680139072900F231
:1013D0007281DFE811F00800630170015D017001A6
:1013E000700170016701A969006800F090FD10F0BC
:1013F000010F40F06181A969206800F086FD10F0BE
:10140000010F40F05981EB693BB1DA6D002A40F0E1
:1014100053815B6D002B40F04F812368D3F88C4FD4
:10142000D3F8CC0FD3F80822C2F30802D3F808127D
:10143000C1F3C031CA4240F03F81D3F80833C3F34F
:101440000803002B40F03881002C40F03581002843
:1014500040F032812B68002B77D06C68072C00D9C4
:1014600001BE03F13D4202F5FE02D20902F185629E
:10147000120192498B420ED080318B420BD08031C9
:101480008B4208D08E498B4205D080318B4202D0EE
:1014900080318B420FD18B4A934240F2CF804FF480
:1014A00080229B1A03F13B4303F53903864901EB84
:1014B000D31102EB0112032C00F2C2801368E40086
:1014C000E34003F01F032B7229686A68072A00D9DA
:1014D00001BE012393408B602B686C68072C00D9F8
:1014E00001BE03F13D4202F5FE02D20902F185621E
:1014F000120172498B420ED080318B420BD0803169
:101500008B4208D06E498B4205D080318B4202D08D
:1015100080318B420FD16B4A934240F299804FF455
:1015200080229B1A03F13B4303F53903664901EB23
:10153000D31102EB0112032C00F28C801368E4003B
:101540001F21A14023EA01031360EB68002B00F088
:10155000A3802C69072C00D901BE03F13D4202F59E
:10156000FE02D20902F18562120154498B420ED06B
:1015700080318B420BD080318B4208D050498B4256
:1015800005D080318B4202D080318B420ED14D4A42
:10159000934269D94FF480229B1A03F13B4303F530
:1015A0003903494901EBD31102EB0112032C5DD839
:1015B0001368E400E34003F01F032B75E9682A6910
:1015C000072A00D901BE012393408B60EB6829698B
:1015D000072900D901BE03F13D4202F5FE02D209FE
:1015E00002F185621201354CA3420ED08034A34231
:1015F0000BD08034A34208D0314CA34205D08034B4
:10160000A34202D08034A3420ED12E4A934201D984
:101610004FF480201B1A03F13B4303F539032A4A98
:1016200002EBD31200EB0212032927D81368C8007B
:101630001F21814023EA010313602DE0024630E7B9
:10164000231F5268DB0022FA03F303F01F033AE77B
:10165000024666E7231F5168DB001F2404FA03F3E8
:1016600021EA0303536070E7024695E7231F52689F
:10167000DB0022FA03F303F01F039EE70B1F516800
:10168000DB001F2000FA03F321EA0303536003E0A9
:10169000A969006800F02EFC002038BD2846FFF73D
:1016A000DDFDF9E72846FFF7D9FD2268136843F00E
:1016B00000431360F0E701BE0448EEE70000474432
:1016C00000004B44FFFF4A4400644404FF00420012
:1016D00008B5034628B19A681979186801F066FAC6
:1016E00008BD01BEF7E708B50B46844650B19CF82B
:1016F0000410DCF80820DCF800002BB100F01CFE20
:10170000002008BD01BEF2E700F0B8FEF8E708B51A
:10171000034628B1186801F00DFA01F0FCF908BD84
:1017200001BEF7E72DE9F04F8DB08A460A920346D5
:1017300000285DD0BAF1000F00D101BE93F804B0CB
:101740009A6808921A6809921846FFF7E0FF034664
:1017500000B901BEB3FBFAF40B94184601F0A6FDE4
:1017600005460E46CDE90256204601F09FFD024691
:101770000B46CDE904232846314601F03BFFCDE975
:101780000601BBF1010F35D9DDE906454FF0000830
:10179000504601F08BFD06460F4622462B4602F0CE
:1017A00071F848B3B8F11E0F26D808F10109484670
:1017B00001F07CFD00222B4B01F0F2FD02460B46AE
:1017C000DDE9040101F036FC02460B46DDE90201C9
:1017D00001F010FF04460D4602460B4630463946DE
:1017E00002F050F80028D3D0CDE90645C846CFE72F
:1017F00001BE9FE74FF00008DDE9060102F06AF83C
:1018000002465146012000F06BF80028B8BF404264
:101810000A9B984223D80B9B5C1E089E3246594671
:10182000099D284600F02AFEBBF1010F10D9CDF822
:1018300000802346089A5946099800F06FFC089AE0
:101840005946099800F078FD00200DB0BDE8F08FF2
:10185000234632465946284600F05CFBEFE7024833
:10186000F3E700BF0000A03F00020204F8B50C46F9
:1018700017461E46054648B354B35FB323685BB3AF
:1018800038220021284603F097F823682B602EB3F6
:10189000AE606F60237AFF2B05D0DB0103F1854337
:1018A00003F58033AB61637A2B77A37A85F8203018
:1018B000E37AFF2B05D0DB0103F1854303F5803389
:1018C0006B62237B85F828300020F8BD01BED3E78A
:1018D00001BED2E701BED1E701BED1E76668D7E716
:1018E00038B5012807D002280CD010B101BE002065
:1018F00000E0881A38BD8A1A0F4B03FB02F292FBF4
:10190000F1F0F7E700238A1A63EB030E90184EEB11
:101910000E0C80184EEB0C0C4FEA4C1444EAD064C9
:10192000450140194CEB040C80180A464EEB0C01A3
:1019300001F0F0FFDEE700BF40420F00014B1860EE
:10194000704700BF0CD60B2470B59DF810E0072936
:1019500000D901BE32F00F046CD0802A6AD001BEDB
:10196000012B00D901BE3EF01F0400D001BE0729A3
:1019700000D901BE3EF01F0400D001BE00F13D4C75
:101980000CF5FE0C4FEADC1C0CF1856C4FEA0C1CCC
:101990003A4CA0420ED08034A0420BD08034A042FA
:1019A00008D0374CA04205D08034A04202D0803409
:1019B000A0420FD1334CA04241D94FF4802CA0EB70
:1019C0000C0404F13B4404F539042F4D05EBD41409
:1019D0000CEB041C032935D8DCF80040CE001F2591
:1019E000B54024EA05040EF01F0E0EFA06FE44EA86
:1019F0000E04CCF8004004684FF0010C0CFA01FC16
:101A000024EA0C0403F001038B4023430360446C7D
:101A100089000F238B4024EA030C046F24EA03039C
:101A2000802A20D002F00F028A4042EA0C0242646F
:101A3000036770BD012A92D0092A91D18FE74FF038
:101A4000000CBCE70C1FDCF80450E4001F26A64085
:101A500025EA06050EF01F0E0EFA04FE45EA0E05F5
:101A6000CCF80450C7E708248C4044EA0C044464D2
:101A7000C2F303128A401A430267DAE700004744C0
:101A800000004B44FFFF4A4400644404C369002B38
:101A900007DA0B0C1B0403B101BE89B241600020C0
:101AA00070470148704700BF01008A000368002B9F
:101AB00008DAC2600B0C1B0403B101BE89B281605D
:101AC000002070470048704701008A001F282ED868
:101AD00010B50C4669B30B6813F01F032BD1010935
:101AE000164A52F8212000F00F0002EB4010144A71
:101AF000106004E06268002142F82310013322687C
:101B0000B3EB521FF6D30021FFF7C0FF224600219E
:101B10000B4B1868FFF7CAFF08B10A480CE0002118
:101B2000074B1868FFF7B2FF30B1064804E00648DB
:101B30007047054800E0044810BD00BF7C09340828
:101B400010D60B2401018A0003018A0010B50B4650
:101B500014461AB1CCB193B90D4810BD0029F9D182
:101B60001F2800D901BE01090A4A52F8212000F0BD
:101B70000F0002EB401208490A601846EDE70749DA
:101B80000B604C60FFF7A2FFE7E70148E5E700BF05
:101B900003018A007C09340810D60B2464E10F2469
:101BA0000268C2F381328023D340D0F80822C2F306
:101BB00008029A4203D0C0F840120120704700206A
:101BC00070470000002800F08A810346002900F0D9
:101BD000888110B40878022800D901BE487B0238F9
:101BE000C0B2062800D901BE887B20B1022802D0ED
:101BF000032800D001BE91F82100012800D901BEC0
:101C000091F82800012800D901BE0878012806D9DA
:101C1000887F48B148680138062805D903E048683C
:101C20000838082800D901BE88680538042800D97A
:101C300001BE4869FF2800D901BE8869FF2800D984
:101C400001BE887C30B1087818B98868092800F08E
:101C50008F8001BE886B20F4366020F00D0000B14B
:101C600001BE086C20F4EE6020F0030000B101BE5C
:101C70000878022800F08180486800F1FF3C087F66
:101C8000002800F081804FF480308C68082C7DD9CA
:101C90004FF4804420430CF00F0C40EA0C0040F05D
:101CA000007018604C6B1868C0F3813C802020FAEB
:101CB0000CF0844200D301BECC6B1868C0F3813CA9
:101CC000802020FA0CF0844200D301BE4C6A1868D0
:101CD000C0F3813C802020FA0CF0844200D301BE86
:101CE0000878000600F040701864487F00284FD044
:101CF00040208C7C002C4DD04FF4806420430C7C21
:101D0000002C49D04FF4807420434C7C002C45D0EB
:101D10004FF400742043CC6A04F1FF3C4FEA0C4CB2
:101D20000CF4702C40EA0C0091F80DC00CF1FF3C53
:101D30000CF0070C40EA0C0091F80EC04FEA0C1CA6
:101D40000CF0300C40EA0C009864986C91F830402C
:101D500034B34FF0807420439864087B10B34FF481
:101D60008070CC7B04BB0C78022C45D000241DE095
:101D7000887B00283FF46EAF6BE7887F00287FF4F4
:101D80007BAF4FF0000C7AE700207EE7002481E76C
:101D90000020AEE70024B1E70024B5E70024B9E74E
:101DA0000024D8E70020DCE74FF4007420438C685F
:101DB00004F1FF3C0CF01F0C40EA0C00C3F80003D8
:101DC00091F814C08869000400F47F004CEA000018
:101DD000C3F81003CC6AD3F8000300F01F000330EF
:101DE000844201D3102C00D901BEC87F38B10878D5
:101DF000012864D0002403E04FF40074D6E70024E7
:101E0000487B013800F00700204391F80EC04FEAEC
:101E10000C1C0CF0300C40EA0C005864087B0028C5
:101E200050D04FF480748868013800F01F002043C0
:101E30000C78012C48D000242043C3F8000291F80C
:101E40003400C3F8040391F8200000283FD04FF07D
:101E5000007091F82140012C3BD00024204391F8E0
:101E60002840012C38D00024204391F824402043FE
:101E7000186591F83C00C3F80402886B20F4926066
:101E800020F002000005000DC3F8C80F086C20F018
:101E90008C004005400DC3F8880F22B3002050602D
:101EA00010609060D0601062D061D06250638B7F10
:101EB00082F830300D4B93635DF8044B70474FF45C
:101EC00080749DE70024AEE74FF48034B4E700202F
:101ED000BFE74FF08074C1E74FF48034C4E7044893
:101EE0007047034870470020E6E700BFEFCDAB0026
:101EF0000160AA00036823F00043036021B10022BF
:101F00004A600A600A62CA62704748687047086897
:101F10007047000000B54FEA102E4FEA104CC0F396
:101F20000740012800D901BE5FFA8EFE20BB0A20BF
:101F3000704500D801BE002943D11CF0FF0C1DD014
:101F4000BCF1010F2FD08A426DD2FF2B6DD84FEA22
:101F50004C6C0CF1844C0CF5802C02EBCE2E0EF563
:101F6000806E5CF82E2022F47F421B029BB213434A
:101F70004CF82E30002027E00620D9E70EF1FF3183
:101F8000082906D8DFE801F01707090B0505050544
:101F90000D006146D7E70421D5E70121D3E70121F0
:101FA000D1E70121CFE7BEF1020F06D0BEF1030F4A
:101FB00005D16146C7E70521C5E76146C3E70021B2
:101FC000C1E7012902D01C485DF804FB1CF0FF0C9E
:101FD00007D1BEF1010F24D0BEF1080F02D0614637
:101FE00000E00021914222D9B3F5803F21D24FEA8F
:101FF0004C6C0CF1844C0CF5802C02EBCE2202F5DB
:10200000A0625CF8221021F47F0121F47F411B02C1
:1020100023F07F4323F0FF0319434CF822100020E4
:10202000D2E70421DEE70448CEE70348CCE70248C4
:10203000CAE70148C8E700BF01004A004FEA102C78
:10204000030CC0F30740012800D901BE5FFA8CFCE5
:10205000F0B90A20604500D801BE012900D901BEAF
:1020600000293AD113F0FF0314D0012B27D08A4264
:1020700000D301BE5B0603F1844303F5802302EB2A
:10208000CC2C0CF5806C53F82C00C0F30720704763
:102090000620DFE70CF1FF31082906D8DFE801F060
:1020A0001707090B050505050D001946DFE7042193
:1020B000DDE70121DBE70121D9E70121D7E7BCF109
:1020C000020F06D0BCF1030F05D11946CFE7052159
:1020D000CDE71946CBE70021C9E713F0FF0307D18D
:1020E000BCF1010F16D0BCF1080F15D1012100E0A1
:1020F0000021914200D801BE5B0603F1844303F541
:10210000802302EBCC2202F5A06253F82200C0F338
:102110000F2070470421ECE71946EAE770B54FEA53
:10212000102C4FEA104EC0F30740012800D901BE21
:102130005FFA8CFC48B90A20604500D801BE02292C
:1021400005D0404803294CD070BD0620F4E71EF0AE
:10215000FF002DD0012833D00024A2423BD2B3F59A
:10216000803F3AD2049C1F2C39D8400600F18440AD
:1021700000F5802002EBCC2505F5C06550F8254020
:1021800024F47F0424F47F441E0226F07F4626F0C8
:10219000FF06344340F8254050F8254024F0F80469
:1021A000049EF600F6B2344340F825400020C9E70B
:1021B000BCF1010F09D0BCF1070F08D10124CCE715
:1021C000BCF1010F05D00024C7E70224C5E704468F
:1021D000C3E70324C1E71B48B4E71A48B2E719482C
:1021E000B0E71EF0FF0E04D1BCF1010F27D07146FD
:1021F00000E000218A42A7D2B3F1807FA4D20499E3
:102200001F29A1D84FEA4E6E0EF1844E0EF5802E96
:1022100002EBCC2202F5E0625EF82210C9B241EA7C
:1022200003234EF822305EF8221021F0F801049BBF
:10223000DB00DBB20B434EF82230002084E761461E
:10224000D8E700BF01004A0030B54FEA102E4FEA30
:10225000104CC0F30740012800D901BE5FFA8EFE82
:1022600068B90A20704500D801BE881EC0B2012896
:1022700007D901BE02290AD0032939D030BD062072
:10228000F0E7002BF5D003980028F3D1F1E71CF01C
:10229000FF001AD0012820D00024A24200D301BEA2
:1022A000400600F1844000F5802002EBCE2404F5C6
:1022B000C06450F82450C5F30F251D6050F8240069
:1022C000C0F3C400039C2060D6E7BEF1010F09D023
:1022D000BEF1070F08D10124DFE7BEF1010F05D0E1
:1022E0000024DAE70224D8E70446D6E70324D4E73B
:1022F0001CF0FF0C04D1BEF1010F1AD0614600E0C2
:1023000000218A4200D301BE4FEA4C6C0CF1844C90
:102310000CF5802C02EBCE2202F5E0625CF8221074
:10232000090A19605CF82230C3F3C403039A1360EE
:10233000A4E77146E5E700004FEA102C030CC0F358
:102340000740012800D901BE5FFA8CFCC0B90A2001
:10235000604500D801BE032900F28A8010B539B962
:1023600013F0FF000ED001282ED0002082426BD344
:10237000012933D0022942D003295AD03E4876E0C1
:102380000620E5E70CF1FF3EBEF1080FEED801A4F0
:1023900054F82EF0D9233408B9233408BD23340867
:1023A000C12334086D2334086D2334086D233408A9
:1023B0006D233408C52334080420D7E70120D5E76E
:1023C0000120D3E70120D1E7BCF1020FCED0BCF150
:1023D000030FCBD00020C9E70520C7E713F0FF00AB
:1023E00007D1BCF1010F08D0BCF1080F02D10120C8
:1023F00000E00020824227D3BCE70420FAE713F074
:10240000FF0005D001280BD0002082421CD3B3E787
:10241000BCF1010F09D0BCF1070FF6D10120F4E7A0
:10242000BCF1010F03D00020EFE70220EDE703200D
:10243000EBE713F0FF0004D1BCF1010F02D16046BD
:1024400000E00020824215D2090201F44071D2B2AC
:102450005B0603F1844303F58023114341F00341FC
:1024600041F47F014FEA4C3299509B58002010BD37
:10247000014870470048FAE701004A004FEA102C73
:10248000030CC0F30740012800D901BE5FFA8CFCA1
:10249000C0B90A20604500D801BE032900F2878038
:1024A00010B539B913F0FF000ED001282ED000204E
:1024B00082426BD3012933D0022942D003295AD05A
:1024C0003D4873E00620E5E70CF1FF3EBEF1080F42
:1024D000EED801A454F82EF01D253408FD2434084C
:1024E0000125340805253408B1243408B124340802
:1024F000B1243408B1243408092534080420D7E76E
:102500000120D5E70120D3E70120D1E7BCF1020F7C
:10251000CED0BCF1030FCBD00020C9E70520C7E720
:1025200013F0FF0007D1BCF1010F08D0BCF1080F78
:1025300002D1012000E00020824227D3BCE7042022
:10254000FAE713F0FF0005D001280BD000208242EB
:102550001CD3B3E7BCF1010F09D0BCF1070FF6D1D2
:102560000120F4E7BCF1010F03D00020EFE70220C7
:10257000EDE70320EBE713F0FF0004D1BCF1010FFE
:1025800002D1604600E00020824212D2090201F42A
:102590004071D2B25B0603F1844303F580231143FB
:1025A00041F080414FEA4C329950002010BD024862
:1025B00070470148FAE700BF01004A000D2800D922
:1025C00001BE00F59260034B53F8200000F00F00AD
:1025D000704700BF000040420D2800D901BE00F541
:1025E0009260034B53F82000C0F30320704700BFF4
:1025F00000004042024BD3F89403C0F380007047C0
:1026000000104042024B984201D8024B18607047BC
:1026100000E1F50514D60B24014B1868704700BF84
:1026200014D60B24044BD3F8680300F003000328EE
:1026300000D070470220FCE70010404208B5FFF7C9
:10264000F1FF022801D0002008BD014B1868FBE70C
:1026500018D60B24014B1860704700BF18D60B2406
:10266000012070470246052800D901BE02F590639B
:10267000074951F8230000F00700072800D07047F1
:10268000403251F8220000F01F0040F48070F6E75D
:102690000000404208B5052800D901BEFFF7E2FF5F
:1026A000032807D8032803D8DFE800F0281F223AC0
:1026B000002036E040F21113984229D040F2131363
:1026C000984206D1174BD3F87033002B13DB002050
:1026D00027E0B0F5887F06D1124BD3F88033002B6A
:1026E00013DB00201DE000201BE0FFF795FF18E042
:1026F000FFF7A4FF15E04FF4004012E0FFF7B0FF32
:1027000008B900200DE008480BE04FF4004008E055
:10271000FFF770FF08B9002003E04FF4004000E02D
:10272000024808BD0010404280F0FA0200127A0010
:10273000012800D901BEB0304001024B1858C00F2B
:10274000704700BF0000404238B505460C460128DE
:1027500000D901BE60220021206802F02DF9214A33
:1027600005F1B003580102EB4311135820680370C0
:102770002068C3F3042C80F801C02068C3F3044C24
:1027800080F802C02068C3F3C06C80F803C02068E2
:10279000C3F3017303714B68216823F07F408860A5
:1027A000206813F0E04118BF012101732168DB0F9D
:1027B0004B7302EB451241F20863D3582268D9B239
:1027C00011612268C3F3024111752268C3F30061ED
:1027D00051752268C3F3007191752268DB0FD375C0
:1027E000002038BD000040422DE9F0419AB0044677
:1027F000012800D901BE02AD60220021284602F066
:10280000DBF800950023019369462046FFF79CFF03
:102810002046FFF78DFF38B1009B1B79022B01D0BA
:10282000012202E0002200E00022009B1E785D7879
:1028300028469F78D3F80880CAB1CDB10FB9384681
:1028400016E02046FFF726FF0446310A360616EB4F
:10285000080641F10001A0FB0606A5FB072304FBC7
:10286000016101F0A7F8000E40EA012000E000201D
:102870001AB0BDE8F0810000034600B101BE60332C
:102880009B01024AD058C00F704700BF0000404271
:1028900038B50C46054600B101BE342200216068FF
:1028A00002F08AF8594B05F16002900103EB8211A6
:1028B0001A58606802706068C2F3022C80F801C088
:1028C0006068C2F3023C80F802C06068C2F3017C19
:1028D00080F803C06068D20F02714A686168C2F371
:1028E000140088606168C2F3425008736168C2F3E3
:1028F00003624A7303EB851341F608029A58616834
:1029000002F0010088736168C2F34072CA7341F635
:102910000C029A58616802F01F0008746168C2F3E3
:10292000441048746168C2F3C22088746168C2F3BD
:102930000340C8746168C2F3025008756168C2F34D
:10294000C35048756168C2F3C3628A7541F61002CC
:102950009A58616802F01F00C8756168C2F344109C
:1029600008766168C2F300324A7641F614029A583A
:1029700061688A836168120CCA8341F618029A580A
:102980006168C2F3120008626168C2F3005081F806
:1029900024006168C2F3006281F8252041F61C0220
:1029A0009A58616802F0010081F826006168C2F35C
:1029B000400081F827006168C2F3004081F82800D8
:1029C0006168C2F3005281F8292003F5C1531B68E6
:1029D000626803F0070182F82A106268C3F3C0013D
:1029E00082F82B106268C3F3001182F82C10626821
:1029F000C3F30C41D1856268C3F3407182F8301093
:102A00006268DB0F82F83130002038BD00004042A0
:102A10002DE9F04391B0054600B101BE03AC34226C
:102A20000021204601F0C8FF00230193029401A970
:102A30002846FFF72DFF2846FFF71EFF38B1029BFF
:102A4000DB78022B01D0012402E0002400E0002406
:102A500002990B7803F101084B785E1C8B785F1CA0
:102A6000D1F808901CB9002011B0BDE8F083A81C73
:102A7000FFF710FE0446B9F1000F07D1A6FB0723AC
:102A800000FB08F0002100F095FFEDE74FEAD821A8
:102A90004FEA485313EB090341F10001A0FB030582
:102AA000A6FB072304FB015100F084FF400D40EA20
:102AB000C120D9E708B5022800D901BE012803D9F1
:102AC0000238FFF7D9FE08BDFFF732FEFBE708B575
:102AD000022800D901BE012803D90238FFF798FF68
:102AE00008BDFFF781FEFBE738B50446052800D98D
:102AF00001BE2046FFF7CEFD0546022C01D928462F
:102B000038BD2046FFF7D6FF0028F8D02046FFF753
:102B1000DEFF0546F3E738B50546FFF75DFD441CCB
:102B20002846FFF74BFDFFF7DFFF00EB5400B0FB3B
:102B3000F4F038BD70B590B0C0F30725C0F3074678
:102B400010F47F0F25D10A23AB422AD9164C0DF180
:102B5000180CA646BEE80F00ACE80F00BEE80F0058
:102B6000ACE80F009EE803008CE80300EE4604F199
:102B7000280CBCE80F00AEE80F009CE803008EE8CC
:102B8000030046B910AB03EB850555F8280C10B0CF
:102B900070BD0623D8E710AB03EB850555F8400C54
:102BA000F5E74FF0FF30F2E7A00934082DE9F043D4
:102BB00085B004460D46174600230393C0F307284B
:102BC000030CC0F3074613F0FE0F00D001BEE6B9B8
:102BD0000A23434500D801BE2046FFF7ABFF2DB9BD
:102BE000AEB1012E28D000239F4206D3012D31D053
:102BF000022D40D0032D58D001BEB0F1FF3F5FD170
:102C00000026304605B0BDE8F0830623E1E708F171
:102C1000FF33082B06D8DFE803F01707090B05057B
:102C200005050D003346DFE70423DDE70123DBE77D
:102C30000123D9E70123D7E7B8F1020F06D0B8F195
:102C4000030F05D13346CFE70523CDE73346CBE766
:102C50000023C9E73EB9B8F1010F08D0B8F1080F59
:102C600007D1012300E000239F42C6D3C0E704231D
:102C7000FAE73346F8E72EB1012E0BD000239F422E
:102C8000BBD3B7E7B8F1010F09D0B8F1070F08D1EE
:102C90000123F4E7B8F1010F05D00023EFE7022389
:102CA000EDE73346EBE70323E9E726B9B8F1010F77
:102CB00003D0B04601E04FF0000847459DD39BE7A5
:102CC000FFF729FF0646012D20D9AB1EDBB2012BF1
:102CD00097D84FF00008CDF808804FEAD069460138
:102CE00002AB009303AB3A4629462046FFF7ACFA05
:102CF000039B0133029A02EB4312500880194346AA
:102D000049F1000100F056FE06467AE73A462946A8
:102D10002046FFF793F90130039006EB5006B6FB0F
:102D2000F0F66EE7082800D901BE082900D901BED7
:102D3000000100F1844303F58203586880B2C84063
:102D400000F001005B681B0CCB405B0003F002034A
:102D50001843831E012B00D970470220FCE70000B6
:102D600038B504460D46082800D901BE082D00D903
:102D700001BE29462046FFF7D5FF022801D00748AB
:102D800038BD240104F1844404F58204236801223F
:102D9000AA40134323600020F2E700BFFF00420077
:102DA00008B538B10A2900D901BEC9B200F0BAF895
:102DB000002008BD01BEF5E708B505281DD006288E
:102DC00033D0012801D0254808BD05212448FFF74C
:102DD000E7FF02212348FFF7E3FF02212248FFF724
:102DE000DFFF05212148FFF7DBFF4FF0E022D3682A
:102DF00023F48013D3600020E6E702211848FFF790
:102E0000CFFF02211748FFF7CBFF02211648FFF73B
:102E1000C7FF00211548FFF7C3FF4FF0E022D3683A
:102E200043F48013D3600020CEE700210C48FFF765
:102E3000B7FF00210B48FFF7B3FF00210A48FFF757
:102E4000AFFF00210948FFF7ABFF4FF0E022D36846
:102E500043F48013D3600020B6E700BF01004200B6
:102E60000010414200002242001022420050224243
:102E700008B5FFF7A1FF08BD08B50120FFF7F8FF6F
:102E8000002211460320FEF761FE00B101BE08BD1D
:102E900000283DD00246C368002B3BD00368002BBE
:102EA0003AD090F804C01E4B53F82C1041B310B424
:102EB0000C4600E019464B693BB1914205D0187EA3
:102EC000117E8842F6D81C46F4E7914226D0236949
:102ED0004BB163695361146103B11A6162610120EE
:102EE0005DF8044B7047117E237E9942F1D2546104
:102EF0000023136122610A4B43F82C200120EFE7E5
:102F0000074B43F82C000023436103610120704705
:102F10000020704700207047002070470020DFE746
:102F20001CD60B24034670B10A2900D901BE1A68C9
:102F300022F00F02114341F4807119609A6812F473
:102F4000807FFBD0704701BEEEE700002DE9F04125
:102F500019B117460C46002623E000263046BDE88E
:102F6000F081174B1B780D2B20D0164B1B6843B1FB
:102F7000144B1D680020C8B90D212868FEF710FE0B
:102F8000F9E701BEF4E701BE15E02946D8F80000D4
:102F9000FEF706FE0028F8D014F8012B084B1A7033
:102FA0000136BE42DADA23780A2BDAD02578054BCF
:102FB0001B68002BE7D0034BD3F800800020E9E723
:102FC0003CD60B2440D60B248C46F9B1002012E0ED
:102FD00001BE14E0D1F84033B3F1FF3FFAD08CF8D2
:102FE00000300130DBB20A2B11D00D2B0FD00CF1C9
:102FF000010C904209DA064B1B68002BE8D0044B09
:103000001B681968D1F84033E6E770470020704725
:1030100040D60B24024618B1024B1A6000207047BC
:1030200001BEF9E740D60B2481F0004102E000BF69
:1030300083F0004330B54FEA41044FEA430594EA78
:10304000050F08BF90EA020F1FBF54EA000C55EAB3
:10305000020C7FEA645C7FEA655C00F0E2804FEA84
:103060005454D4EB5555B8BF6D420CDD2C4480EA66
:10307000020281EA030382EA000083EA010180EA96
:10308000020281EA0303362D88BF30BD11F0004FE4
:103090004FEA01314FF4801C4CEA113102D040421A
:1030A00061EB410113F0004F4FEA03334CEA133355
:1030B00002D0524263EB430394EA050F00F0A7806D
:1030C000A4F10104D5F1200E0DDB02FA0EFC22FA68
:1030D00005F2801841F1000103FA0EF2801843FA5C
:1030E00005F359410EE0A5F120050EF1200E012A4D
:1030F00003FA0EFC28BF4CF0020C43FA05F3C0188B
:1031000051EBE37101F0004507D54FF0000EDCF103
:10311000000C7EEB00006EEB0101B1F5801F1BD3AC
:10312000B1F5001F0CD349085FEA30004FEA3C0CB0
:1031300004F101044FEA445212F5800F80F09A80A6
:10314000BCF1004F08BF5FEA500C50F1000041EBAA
:10315000045141EA050130BD5FEA4C0C404141EBAE
:103160000101013C28BFB1F5801FE9D291F0000FA9
:1031700004BF01460020B1FA81F308BF2033A3F158
:103180000B03B3F120020CDA0C3208DD02F1140C4F
:10319000C2F10C0201FA0CF021FA02F10CE002F18A
:1031A0001402D8BFC2F1200C01FA02F120FA0CFC83
:1031B000DCBF41EA0C019040E41AA2BF01EB0451CC
:1031C000294330BD6FEA04041F3C1CDA0C340EDCCA
:1031D00004F11404C4F1200220FA04F001FA02F30D
:1031E00040EA030021FA04F345EA030130BDC4F1CB
:1031F0000C04C4F1200220FA02F001FA04F340EAC0
:103200000300294630BD21FA04F0294630BD94F070
:10321000000F83F4801306BF81F480110134013D57
:103220004EE77FEA645C18BF7FEA655C29D094EAC8
:10323000050F08BF90EA020F05D054EA000C04BF46
:103240001946104630BD91EA030F1EBF0021002031
:1032500030BD5FEA545C05D14000494128BF41F0D0
:10326000004130BD14F580043CBF01F5801130BD34
:1032700001F0004545F0FE4141F470014FF00000BF
:1032800030BD7FEA645C1ABF194610467FEA655C70
:103290001CBF0B46024650EA013406BF52EA033512
:1032A00091EA030F41F4002130BD00BF90F0000F00
:1032B00004BF0021704730B54FF4806404F132043C
:1032C0004FF000054FF0000150E700BF90F0000FF5
:1032D00004BF0021704730B54FF4806404F132041C
:1032E00010F0004548BF40424FF000013EE700BFEC
:1032F00042004FEAE2014FEA31014FEA02701FBF7C
:1033000012F07F4393F07F4F81F06051704732F0AD
:103310007F4208BF704793F07F4F04BF41F4002104
:10332000704730B54FF4607401F0004521F0004162
:103330001CE700BF50EA010208BF704730B54FF0EC
:1033400000050AE050EA010208BF704730B511F0ED
:10335000004502D5404261EB41014FF4806404F125
:1033600032045FEA915C3FF4D8AE4FF003025FEAAB
:10337000DC0C18BF03325FEADC0C18BF033202EB2F
:10338000DC02C2F1200300FA03FC20FA02F001FA89
:1033900003FE40EA0E0021FA02F11444BDE600BF2C
:1033A00070B54FF0FF0C4CF4E06C1CEA11541DBFDB
:1033B0001CEA135594EA0C0F95EA0C0F00F0DEF8A6
:1033C0002C4481EA030621EA4C5123EA4C5350EA8B
:1033D000013518BF52EA033541F4801143F48013DC
:1033E00038D0A0FB02CE4FF00005E1FB02E506F06D
:1033F0000042E0FB03E54FF00006E1FB03569CF0C2
:10340000000F18BF4EF0010EA4F1FF04B6F5007FC7
:1034100064F5407404D25FEA4E0E6D4146EB060639
:1034200042EAC62141EA55514FEAC52040EA5E50C2
:103430004FEACE2EB4F1FD0C88BFBCF5E06F1ED86C
:10344000BEF1004F08BF5FEA500E50F1000041EBA3
:10345000045170BD06F0004646EA010140EA020050
:1034600081EA0301B4EB5C04C2BFD4EB0C0541EA72
:10347000045170BD41F480114FF0000E013C00F387
:10348000AB8014F1360FDEBF002001F0004170BDAB
:10349000C4F10004203C35DA0C341BDC04F11404C4
:1034A000C4F1200500FA05F320FA04F001FA05F250
:1034B00040EA020001F0004221F0004110EBD3701D
:1034C00021FA04F642EB06015EEA430E08BF20EA49
:1034D000D37070BDC4F10C04C4F1200500FA04F3EC
:1034E00020FA05F001FA04F240EA020001F000417E
:1034F00010EBD37041F100015EEA430E08BF20EAF1
:10350000D37070BDC4F1200500FA05F24EEA020E38
:1035100020FA04F301FA05F243EA020321FA04F067
:1035200001F0004121FA04F220EA020000EBD3701E
:103530005EEA430E08BF20EAD37070BD94F0000F1E
:103540000FD101F00046400041EB010111F4801F52
:1035500008BF013CF7D041EA060195F0000F18BF03
:10356000704703F00046520043EB030313F4801F3F
:1035700008BF013DF7D043EA0603704794EA0C0FF9
:103580000CEA135518BF95EA0C0F0CD050EA41060F
:1035900018BF52EA4306D1D181EA030101F000418C
:1035A0004FF0000070BD50EA410606BF10461946B4
:1035B00052EA430619D094EA0C0F02D150EA0136C0
:1035C00013D195EA0C0F05D152EA03361CBF104601
:1035D00019460AD181EA030101F0004141F0FE41A0
:1035E00041F470014FF0000070BD41F0FE4141F424
:1035F000780170BD70B54FF0FF0C4CF4E06C1CEA24
:1036000011541DBF1CEA135594EA0C0F95EA0C0FD8
:1036100000F0A7F8A4EB050481EA030E52EA033593
:103620004FEA013100F088804FEA03334FF08055B4
:1036300045EA131343EA12634FEA022245EA1115E1
:1036400045EA10654FEA00260EF000419D4208BF92
:10365000964244F1FD0404F5407402D25B084FEA3F
:103660003202B61A65EB03055B084FEA32024FF4EB
:1036700080104FF4002CB6EB020E75EB030E22BF48
:10368000B61A754640EA0C005B084FEA3202B6EB08
:10369000020E75EB030E22BFB61A754640EA5C00B7
:1036A0005B084FEA3202B6EB020E75EB030E22BF47
:1036B000B61A754640EA9C005B084FEA3202B6EB48
:1036C000020E75EB030E22BFB61A754640EADC0007
:1036D00055EA060E18D04FEA051545EA16754FEA69
:1036E00006164FEAC30343EA52734FEAC2025FEA87
:1036F0001C1CC0D111F4801F0BD141EA00014FF016
:1037000000004FF0004CB6E711F4801F04BF0143E6
:103710000020B4F1FD0C88BFBCF5E06F3FF6AFAE02
:10372000B5EB030C04BFB6EB020C5FEA500C50F192
:10373000000041EB045170BD0EF0004E4EEA113115
:1037400014EB5C04C2BFD4EB0C0541EA045170BD1C
:1037500041F480114FF0000E013C90E645EA060E60
:103760008DE60CEA135594EA0C0F08BF95EA0C0F8E
:103770003FF43BAF94EA0C0F0AD150EA01347FF4D6
:1037800034AF95EA0C0F7FF425AF104619462CE7AD
:1037900095EA0C0F06D152EA03353FF4FDAE104610
:1037A000194622E750EA410618BF52EA43067FF461
:1037B000C5AE50EA41047FF40DAF52EA43057FF4F1
:1037C000EBAE12E74FF0FF3C06E000BF4FF0010CFC
:1037D00002E000BF4FF0010C4DF804CD4FEA410C60
:1037E0007FEA6C5C4FEA430C18BF7FEA6C5C1BD02D
:1037F00001B050EA410C0CBF52EA430C91EA030FAE
:1038000002BF90EA020F0020704710F1000F91EA0A
:10381000030F58BF994208BF90422CBFD8176FEAD8
:10382000E37040F0010070474FEA410C7FEA6C5CA6
:1038300002D150EA013C07D14FEA430C7FEA6C5CAD
:10384000D6D152EA033CD3D05DF8040B704700BFD9
:103850008446104662468C461946634600E000BF27
:1038600001B5FFF7B7FF002848BF10F1000F01BDF9
:103870004DF808EDFFF7F4FF0CBF012000205DF8C4
:1038800008FB00BF4DF808EDFFF7EAFF34BF012049
:1038900000205DF808FB00BF4DF808EDFFF7E0FFE2
:1038A00094BF012000205DF808FB00BF4DF808ED33
:1038B000FFF7CEFF94BF012000205DF808FB00BF9A
:1038C0004DF808EDFFF7C4FF34BF012000205DF87C
:1038D00008FB00BF4A0011D212F5001211D20DD51B
:1038E0006FF47873B3EB62520ED44FEAC12343F006
:1038F000004343EA505323FA02F070474FF00000B0
:10390000704750EA013002D14FF0FF3070474FF05E
:10391000000070477BB972B90029BEBF00204FF08C
:10392000004106E008BF00281CBF6FF000414FF0C7
:10393000FF3000F0CDB9ADF1080C6DE904CE0029DF
:1039400009DB002B1ADB00F04DF8DDF804E0DDE9BF
:10395000022304B07047404261EB4101002B1BDBA6
:1039600000F040F8DDF804E0DDE9022304B0404255
:1039700061EB4101524263EB43037047524263EBF8
:10398000430300F02FF8DDF804E0DDE9022304B082
:10399000404261EB41017047524263EB430300F048
:1039A00021F8DDF804E0DDE9022304B0524263EBC4
:1039B0004303704753B94AB9002908BF00281CBF08
:1039C0004FF0FF314FF0FF3000F082B9ADF1080C3D
:1039D0006DE904CE00F006F8DDF804E0DDE902232D
:1039E00004B070472DE9F04F099E0D4604460F467E
:1039F000002B46D18A4294465ED9B2FA82F343B193
:103A000002FA03FCC3F120029F409C4020FA02F21C
:103A100017434FEA1C4E1FFA8CF5220CB7FBFEF140
:103A20000EFB117701FB05F042EA0742904208D9EC
:103A30001CEB020201F1FF3702D2904200F2348106
:103A40003946121AA4B2B2FBFEF00EFB102200FBA4
:103A500005F544EA0244A54208D91CEB040400F130
:103A6000FF3202D2A54200F21981104640EA01401D
:103A7000641B00211EB1DC400023C6E90043BDE801
:103A8000F08F8B4208D9002E00F0FC800021C6E99F
:103A900000050846BDE8F08FB3FA83F100294CD148
:103AA000AB42C0F0F280824240F2EF800846002E26
:103AB000E5D0C6E90047E2E702B9FFDEB2FA82F3D9
:103AC000002B40F09F808A1A4FEA1C4E1FFA8CF799
:103AD0000121B2FBFEF50EFB1520220C42EA00424A
:103AE00007FB05F090420FD91CEB020205F1FF38ED
:103AF0002CBF4FF001094FF00009904203D9B9F1F2
:103B0000000F00F0CE804546121AA4B2B2FBFEF0C0
:103B10000EFB102200FB07F744EA0244A74208D933
:103B20001CEB040400F1FF3202D2A74200F2B38082
:103B30001046E41B40EA05409CE7C1F120048B409D
:103B400005FA01FC22FA04F7E5408A401F4320FAF7
:103B500004F388404FEA174843EA0C031FFA87FC36
:103B60004FEA1349B5FBF8FE08FB1E5549EA054527
:103B70000EFB0CF9A9450ED97D190EF1FF3A2CBFA9
:103B80004FF0010B4FF0000BA94503D9BBF1000F1B
:103B900000F08D80D646A5EB09051FFA83F9B5FB29
:103BA000F8F308FB135503FB0CFC49EA0545AC454B
:103BB00006D97D1903F1FF3801D2AC457ED84346C2
:103BC00043EA0E43A5EB0C05A3FB02984545CE4600
:103BD000C44602D306D1484504D2013BB9EB020EDC
:103BE00068EB070C002E6FD0B0EB0E0265EB0C05F6
:103BF000CA4005FA04F4CD40184614430021C6E932
:103C000000453CE702FA03FCC3F1200299409C40C6
:103C1000D5404FEA1C4E20FA02F21FFA8CF7B5FB92
:103C2000FEF00A430EFB1055110C41EA054100FB62
:103C300007F58D420ED91CEB010100F1FF382CBFB6
:103C40004FF001094FF000098D4202D9B9F1000F80
:103C500031D04046491B92B2B1FBFEF50EFB151167
:103C600042EA014205FB07F1914207D91CEB02022F
:103C700005F1FF3801D2914223D84546521A45EA50
:103C8000004126E731463046F9E6841A65EB030227
:103C9000012017460BE7644402384AE764440238BF
:103CA000E4E6023D62442FE702396244C9E6AEF120
:103CB000020E3D446FE702386144CBE7023B3D44CE
:103CC0007EE7023D6244D9E718463146D7E600BF99
:103CD000704700BF08B5064B044613B10021AFF38F
:103CE0000080044B1B6803B19847204602F0AEFDEC
:103CF000000000007CD70B24002B2DE9F0471D4667
:103D000088B0B4BF03F1004300231446BCBF14467F
:103D10001D46129AB8BF2D23109EDDF84CA01370DB
:103D2000149B23F02008B8F1460F05D0B8F1450FD9
:103D300000D10136022300E0032307AA049206AA59
:103D4000CDE90036CDE902A22B46224600F060FF05
:103D5000B8F1470F074602D1119BDB0722D5B8F116
:103D6000460F07EB060910D13B78302B0AD1002211
:103D7000002320462946FFF77BFD18B9C6F101064E
:103D8000CAF80060DAF80030994400220023204687
:103D90002946FFF76DFD08B1CDF81C903022079B36
:103DA0004B4507D3079B3846159ADB1B136008B0B9
:103DB000BDE8F087591C07911A70F0E7F7B50029A4
:103DC0000346B8BF494203F8022BB4BF2D222B2271
:103DD0000929427029DD0DF107020A26174694468B
:103DE000013A91FBF6F506FB151430340CF8014C42
:103DF0000C462946632CF2DC3031ACF1020402F8A7
:103E0000011C411C2246BA420AD30DF10902A2EB61
:103E10000C02BC4288BF00221344181A03B0F0BD44
:103E200012F8015B01F8015FEDE730233031837058
:103E3000031DC170F1E700002DE9F04F2DED028B5D
:103E400091B00C4616461F46DDF87080054600F01E
:103E5000BBFDD0F800A0504600F041FE002394F8CE
:103E600018B008EE100A0E9323680993D8F80030B2
:103E7000073323F0070303F10802C8F800204FF0CE
:103E8000FF32D3E9008929F00043CDF828800B9355
:103E9000A04BDDE90A01C4E9128902F059FC88BB94
:103EA0004FF0FF329B4BDDE90A01FFF7F5FC48BB01
:103EB0000022002340464946FFF7E4FC10B12D23C1
:103EC00084F84330944A954BBBF1470F94BF90461A
:103ED000984603234FF000092361099B23F0040354
:103EE000236033460FAA21462846009700F0DCF9EC
:103EF000013040F092804FF0FF3011B0BDEC028BEA
:103F0000BDE8F08F42464B464046494602F020FC51
:103F100040B14B46824A002BBCBF2D2384F843306E
:103F2000804BD1E763680BF0DF015A1C43D10623B5
:103F300063600022099B28460A9106920EAA43F468
:103F40008063CDE904B20DAA236003920DF1330220
:103F5000CDE901326368424600934B46FFF7CCFE41
:103F60000A99804647290D9908D1C81C02DB63686D
:103F7000994240DDABF102035FFA83FBBBF1650FB1
:103F80001FD801395A4604F150000D91FFF716FF72
:103F90000E9A81461318012A236102DC2268D20797
:103FA00001D5013323619DF83330002B99D02D23A7
:103FB00084F8433095E74729BBD1002BB9D10123C1
:103FC000B6E7BBF1660F18D1002963680BDD2161EC
:103FD00013B92268D00702D501330B4423614FF097
:103FE0000009A165DFE713B92268D20701D50233C2
:103FF000F4E70123F2E74FF0670B0E9B994205DBD4
:1040000023682161D807EAD54B1CE7E70029D4BF14
:10401000C1F1020201221344E0E723685A0507D4E4
:104020002369424631462846B84701302CD162E721
:10403000BBF1650F40F2E08000220023D4E91201B9
:10404000FFF716FC002834D00123374A31462846B2
:10405000B84701303FF44FAFDDE90D239A4202DB50
:104060002368D80710D518EE103A52463146284634
:10407000B84701303FF43FAF4FF0000804F11A0990
:104080000E9B013B434509DC23689B0700F1078138
:10409000E0680F9B9842B8BF18462EE701234A46B6
:1040A00031462846B84701303FF425AF08F10108F2
:1040B000E6E70D9B002B39DC01231B4A31462846DD
:1040C000B84701303FF417AFDDE90D32134302D199
:1040D0002368D907D8D518EE103A524631462846FB
:1040E000B84701303FF407AF4FF0000904F11A0A56
:1040F0000D9B5B424B4501DC0E9B92E70123524630
:1041000031462846B84701303FF4F5AE09F10109C0
:10411000EEE700BFFFFFEF7FE0093408E409340851
:10412000E8093408EC093408F00934080E9AA36D44
:104130009A42A8BF1A46002A914637DC4FF0000B7E
:1041400029EAE97904F11A02A36D0993A3EB0903A3
:104150005B4533DCDDE90D239A423BDB2368DA075C
:1041600038D4DDE90D32A2EB0309099BD21A91453F
:10417000A8BF9146B9F1000F35DC4FF0000829EADD
:10418000E97904F11A0ADDE90D239B1AA3EB09036F
:1041900043457FF779AF0123524631462846B84759
:1041A00001303FF4A8AE08F10108ECE713463146B0
:1041B00042462846B8470130C0D19CE6012331462B
:1041C00028460992B84701303FF495AE0BF1010B38
:1041D000099AB9E718EE103A524631462846B847D0
:1041E0000130BED187E6099A4B4631462846424403
:1041F000B8470130C1D17EE60E9A012A01DCDB0707
:104200003AD50123424631462846B84701303FF4AB
:1042100072AE18EE103A524631462846B847013081
:104220003FF469AE00220023DDF838A0D4E9120182
:10423000FFF71EFBD8B90AF1FF3308F1010231463E
:104240002846B84701300ED155E601235246314683
:104250002846B84701303FF44EAE08F101080E9BE6
:10426000013B4345F1DC4B4604F15002DAE64FF0E6
:10427000000804F11A0AF2E701234246DFE70123AE
:104280004A4631462846B84701303FF434AE08F17B
:104290000108E3680F995B1A4345F0DCF8E64FF03C
:1042A000000804F11909F4E72DE9F047164699468C
:1042B0008A6807460B690C46DDF820809342B8BF38
:1042C0001346336091F843200AB101333360236809
:1042D000990642BF336802333360256815F006053E
:1042E00006D104F1190AE36832689B1AAB422BDC51
:1042F00094F84320131E226818BF0123920630D47D
:1043000004F1430249463846C047013023D02368B0
:104310001A3454F80A2C03F00603042B0ABF54F88D
:104320000E5C002533684FF0000608BFED1A54F804
:10433000123C08BF25EAE5759342C4BF9B1AED18ED
:10434000B5421AD1002008E00123524649463846BA
:10435000C047013003D14FF0FF30BDE8F087013591
:10436000C1E7E1185A1C30200233224481F843008F
:1043700094F8451082F84310C2E7012322464946CB
:104380003846C0470130E6D00136D9E72DE9FF476E
:104390000F7E914680460C46782F9A460C9D01F17F
:1043A000430207D8622F0AD8002F00F0D380582F7D
:1043B00000F0BF8004F1420584F842703AE0A7F1B2
:1043C0006303152BF6D801A151F823F025443408D6
:1043D00039443408B5433408B5433408B543340888
:1043E000B543340839443408B5433408B543340878
:1043F000B5433408B54334083B45340865443408B4
:10440000F7443408B5433408B54334085D453408EF
:10441000B543340865443408B5433408B54334081B
:10442000FF4434082B681A1D1B682A6004F14205FA
:1044300084F8423001239EE020682B68070603F1D0
:104440000401296001D51E6803E04606FBD5B3F9D7
:104450000060002E03DA2D23764284F84330594859
:104460000A2312E02B682068191D2960050601D572
:104470001E6802E04106FBD51E886F2F51480CBF15
:1044800008230A23002184F843106568002DA560E5
:10449000A2BF216821F0040121600EB9002D4AD08D
:1044A0001546B6FBF3F103FB1167C75D05F8017D07
:1044B00037460E46BB42F4D9082B0BD12368DE07E2
:1044C00008D5236961689942DEBF302305F8013CB5
:1044D00005F1FF35521B22614B4603AA2146404697
:1044E000CDF800A0FFF7E0FE013049D14FF0FF30DA
:1044F00004B0BDE8F087236843F0200323607827E9
:104500003148236884F845701F06296851F8046B08
:1045100002D45F0648BFB6B2DF07296044BF43F04C
:10452000200323601EB9236823F020032360102397
:10453000A8E72448E5E71546BEE72B682668181D5E
:104540006169286035061B6801D5196002E07006B4
:10455000FBD51980002315462361BDE72B68002198
:104560001A1D2A601D686268284600F09DFA08B18D
:10457000401B606063682361002384F84330ABE72D
:1045800023692A4649464046D0470130AED02368C9
:104590009B0713D4E068039B9842B8BF1846A7E76F
:1045A0000123324649464046D04701309ED001356E
:1045B000E36803995B1AAB42F2DCEBE7002504F1F8
:1045C0001906F5E7F2093408030A3408002310B588
:1045D00004468360818119464366C2810822836153
:1045E000C0E90033C0E904335C3000F0E5F9054B65
:1045F00024626362044BA362044BE362044B2363B3
:1046000010BD00BF094834082B48340863483408FB
:1046100087483408024A0349034800F069B800BFDC
:10462000B4D30B2475643408C0D30B2441680C4BFD
:10463000994210B5044601D001F01CFFA168094B56
:10464000994202D0204601F015FFE168064B9942DD
:1046500004D02046BDE8104001F00CBF10BD00BFE3
:1046600044D60B24ACD60B2414D70B2410B50B4B1B
:1046700004210B4C0B4A20461A600022FFF7A6FFCC
:1046800004F1680001220921FFF7A0FF04F1D00026
:1046900002221221BDE81040FFF798BF7CD70B24FF
:1046A00044D60B2415463408014800F0FBB900BF7E
:1046B00085D70B24014800F0F6B900BF85D70B243D
:1046C00010B50446FFF7F0FF236A1BB1BDE81040A8
:1046D000FFF7F0BF044B2362044B1B68002BF5D19E
:1046E000FFF7C4FFF2E700BF2D4634087CD70B2448
:1046F0002DE9F8430746884614460026D4E901957B
:10470000B9F1010905D52468002CF7D13046BDE880
:10471000F883AB89012B07D9B5F90E30013303D0EB
:1047200029463846C04706436835E9E70FB407B560
:10473000064904AB086853F8042B8168019301F023
:10474000FBFC03B05DF804EB04B070470CD40B2401
:10475000036A70B505460E4684680BB9FFF7B0FFD3
:10476000636EDB0705D4A389980502D4A06D00F021
:1047700099F9A389190713D523698BB1013EA36861
:1047800016F8011F013BA360E9B9002B2EDA22467F
:104790000A21284600F07BF8013007D00A2507E0FF
:1047A0002146284600F0B0F80028E7D04FF0FF354A
:1047B000636EDA0705D4A3899B0502D4A06D00F0CF
:1047C00072F9284670BD002B04DAA2699A4206DC11
:1047D0000A2904D023685A1C22601970CFE72246A8
:1047E000284600F054F80130C9D1DFE723680A25D4
:1047F0005A1C22601D70DBE7024B01461868FFF768
:10480000A7BF00BF0CD40B2410B50C46B1F90E1095
:1048100000F000F90028ABBF636DA3891B1823F4D7
:104820008053ACBF6365A38110BD2DE9F0411F46E5
:104830008B8905460C46DB05164605D5022300226A
:10484000B1F90E1000F0D4F8A3893246B4F90E1075
:10485000284623F48053A3813B46BDE8F04100F095
:10486000EBB810B50C46B1F90E1000F0C1F8431CBE
:10487000A38915BF606523F4805343F48053A3815B
:1048800018BFA38110BDB1F90E1000F0A1B8F8B5A2
:104890000E461446054618B1036A0BB9FFF710FF20
:1048A000A369A360A3891A0725D523691BB32368CD
:1048B000F6B222693746981A6369834204DC2146BE
:1048C000284601F0D7FDE0B9A368013BA360236847
:1048D0005A1C22601E70431C62699A4204D0A3894C
:1048E000DB0706D50A2E04D12146284601F0C2FD79
:1048F00038B93846F8BD2146284600F005F80028AA
:10490000D5D04FF0FF37F4E738B52A4B05460C46B3
:10491000186818B1036A0BB9FFF7D2FEA389B4F97E
:104920000C20180722D4D90607D409232B6042F0A3
:1049300040034FF0FF30A38134E0580712D5616B7C
:1049400041B104F14403994202D0284600F050FFDF
:1049500000236363A38923F02403A38100236360FE
:1049600023692360A38943F00803A38123694BB91A
:10497000A38903F42073B3F5007F03D021462846B2
:1049800001F0C5FDA089B4F90C2010F001030AD094
:104990000023A36063695B42A361236943B910F0FC
:1049A0008000C4D138BD810758BF6369A360F4E7B4
:1049B0000020F7E70CD40B2402440346934200D1B5
:1049C000704703F8011BF9E70048704700D50B2436
:1049D00038B50023054D044608462B6001F0F6FE6D
:1049E000431C02D12B6803B1236038BD80D70B2450
:1049F00038B50446064D0846114600222A601A467C
:104A000001F00CFF431C02D12B6803B1236038BDB9
:104A100080D70B2438B50446064D084611460022BF
:104A20002A601A46FEF7D0FA431C02D12B6803B164
:104A3000236038BD80D70B2438B50446064D0846A0
:104A4000114600222A601A46FEF780FA431C02D162
:104A50002B6803B1236038BD80D70B2470B50D4D92
:104A600000260D4C641BA410A64209D10B4D002654
:104A70000B4CFBF7C7FE641BA410A64205D170BD0A
:104A800055F8043B01369847EEE755F8043B0136EC
:104A90009847F2E71C0834081C0834081C0834083E
:104AA0002008340870477047C9B2024410B59042DC
:104AB000034601D1002303E01C7801308C42F6D17B
:104AC000184610BD0A44431E914200D1704710B5EC
:104AD00011F8014B914203F8014FF9D110BD034683
:104AE00013F8012B002AFBD1181A013870472DE961
:104AF000F74F036907460C69A342C0F28680013C68
:104B000000F1140501F1140805EB840355F8242085
:104B10004FEA840B019308EB840958F824300133E1
:104B20009A42B2FBF3F635D34FF0000E4046AC4646
:104B3000F24650F8042B93B2814506FB03E34FEA9B
:104B4000124E4FEA13429BB206FB0E22AAEB03035E
:104B5000DCF800A04FEA124E1FFA8AFA92B25344D0
:104B60000093DCF80030C2EB1342009B02EB2342BF
:104B7000BDF8003043EA02434FEA224A4CF8043BB6
:104B8000D7D255F80B302BB9019B043B9D421A46F6
:104B90002FD33C61384601F09FF9002825DB013610
:104BA0002946002058F8042BD1F800C093B2C14523
:104BB0004FEA1242A0EB03031FFA8CF0C2EB1C4237
:104BC000034402EB23429BB24FEA224043EA0243F2
:104BD00041F8043BE6D255F8242005EB840322B9C2
:104BE000043B9D421A460AD33C61304603B0BDE8FF
:104BF000F08F1268043B002ACBD1013CC6E7126853
:104C0000043B002AF0D1013CEBE70020EEE7000076
:104C10002DE9F04F16461F46C56904462DED048B5D
:104C200093B0DDF88C80CDE9066775B9102000F0EF
:104C30002BFE0246E06120B9AF4BEF21AF4801F0F7
:104C4000D5FCC0E901550560C560E369196851B13B
:104C50005A680123204693404A608B6000F0FEFEB4
:104C6000E36900221A603B1EB7BF23F00043002314
:104C700001220793A8BFC8F80030DDF81C90A04BB4
:104C8000B8BFC8F8002033EA09031BD142F20F7302
:104C9000229A1360C9F31303334300F09485249BD5
:104CA00063B9984B27E0984B03930833249A136019
:104CB000039813B0BDEC048BBDE8F08F914B0393C8
:104CC0000333F3E79DED067B0022002351EC170B25
:104CD000B0EE478AF0EE678AFEF7CAFD804660B103
:104CE0000123229A1360249B002B00F06985874BD7
:104CF000249A1360013B0393DAE710ABC9F30A551A
:104D00002046019311AB009353EC182B01F090F95E
:104D10008246002D7DD018EE903AA5F2FF35CDF8F1
:104D20003880C3F3130343F07F5343F4401351EC33
:104D3000180B19460022764BFEF77AF968A3D3E9DF
:104D40000023FEF72DFB68A3D3E90023FEF772F9D9
:104D500006460F462846FEF7B9FA65A3D3E90023B5
:104D6000FEF71EFB02460B4630463946FEF762F957
:104D700006460F4601F002FD00228346002330461E
:104D80003946FEF77FFD48B15846FEF79FFA324696
:104D90003B46FEF76DFD08B90BF1FF3BBBF1160F6B
:104DA00057D85C4B03EBCB0351EC180BD3E9002332
:104DB000FEF768FD00284ED00BF1FF3B00230D935A
:104DC000109B5B1B5A1E4CBFC3F1010300230992C9
:104DD00045BF0893002308930993BBF1000F3CDB08
:104DE000099BCDF830B05B44099300230A93209BC4
:104DF000092B68D8052BC5BF043B0025012520934E
:104E0000209B023B032B00F28980DFE803F0303D5A
:104E10003B5ADDE910531D4405F23243202BC9BF34
:104E2000C3F14003C3F1200309FA03F905F2124369
:104E3000D8BF06FA03F005F1FF35C4BF26FA03F325
:104E400049EA0300FEF732FA0122A1F1F8730E924B
:104E50006FE70123B3E70D90B2E7089BA3EB0B03C9
:104E60000893CBF100030A9300230C93BFE70023C0
:104E70000B93219B002B54DC01231A46CDE904330C
:104E800021920BE00123F3E700230B93219B5B446A
:104E900004930133012B0593B8BF0123E06900217E
:104EA000042202F114069E423FD94160204600F0E0
:104EB00095FD039000283BD1174B024640F2AF11FD
:104EC000BCE60123E1E7012500230B9520934FF079
:104ED000FF330022CDE904331223D1E7AFF3008082
:104EE00061436F63A787D23FB3C8608B288AC63FF0
:104EF000FB799F501344D33F210A3408380A340801
:104F00000000F07F1D0A3408140A3408F10934083F
:104F10000000F83F280B3408910A340801230B9352
:104F2000D5E7219BCDE90433B8E701315200B8E75A
:104F3000E369039A1A60059B0E2B00F2A880002DEE
:104F400000F0A580BBF1000F38DD0BF00F02BF4B66
:104F50001BF4807F4FEA2B1803EBC203D3E90067F1
:104F600019D0BB4B08F00F080325D3E9082351ECF7
:104F7000180BFEF73FFBCDE90601DFF8D492B8F13C
:104F8000000F0AD132463B46DDE90601FEF732FB4F
:104F9000CDE906012BE00225EFE718F0010F08D05C
:104FA000304639460135D9E90023FEF7F9F90646BE
:104FB0000F464FEA680809F10809E0E700F09F8012
:104FC000CBF10006A14BA24F022506F00F023611CD
:104FD00003EBC20351EC180BD3E90023FEF7E0F911
:104FE0000023CDE90601002E7ED1002BD0D10D9BF0
:104FF000DDE90689002B00F084800022954B4046B5
:105000004946FEF73FFC00287BD0059B002B78D05B
:10501000049B002B39DD00228F4B40464946FEF7AA
:10502000BFF90BF1FF370135049ECDE90601DDE93B
:1050300006892846FEF74AF942464B46FEF7B0F984
:10504000864B0022FDF7F6FFA1F15073CDE9060172
:105050000793002E58D10022814B40464946FDF768
:10506000E7FF80468946DDE90623FEF729FC002894
:1050700040F097824046DDE9062101F100434946B0
:10508000FEF700FC002840F08A828DED068B119B14
:10509000002BC0F24E81BBF10E0F00F34A816B4B27
:1050A00003EBCB03D3E90089219B002B80F2DC804A
:1050B000059B002B00F3D88040F070820022684BE3
:1050C00040464946FEF76CF9DDE90623FEF7EEFBA4
:1050D000059E3746002840F04682039D31230BF1A0
:1050E000010B05F8013B42E2F20705D50135D7E98E
:1050F0000023FEF755F901237610083773E70225E0
:1051000075E75F46059E92E70399504B314403EBE8
:10511000C6039DED067B06910B99B0EE479AF0EE23
:10512000679A53E90223002944D000204D49FEF735
:1051300061FA53EC192BFDF77BFF039D41EC190B32
:105140004946404601F01AFB0646FEF7BFF8024604
:1051500030360B4640464946FDF76AFF05F8016BBD
:105160008046894653EC192BFEF78CFB002864D14E
:1051700042464B4600203749FDF75AFF53EC192BA6
:10518000FEF780FB002840F0B680069B9D423FF46E
:105190007CAF0022304B51EC190BFEF701F90022D5
:1051A0002D4B41EC190B40464946FEF7F9F8804675
:1051B0008946C5E751EC170BFEF7F2F8069B039DF5
:1051C0000F9341EC190B4946404601F0D7FA0646C9
:1051D000FEF77CF802460B46404649463036FDF75E
:1051E00027FF069B05F8016B80469D4289464FF0DC
:1051F000000224D11B4B51EC190BFDF71BFF02469B
:105200000B4640464946FEF75BFB002873D1002061
:10521000144953EC192BFDF70BFF02460B46404691
:105220004946FEF72FFB00283FF42FAF0F9D6B1E62
:105230000F9315F8013C302BF8D0BB464AE0064BE3
:10524000FEF7AEF880468946BDE700BF280B34085C
:10525000000B34080000F03F0000244000001C4018
:10526000000014400000E03FDDE90667039D424670
:105270004B4630463946FEF7BDF901F07FFA0490FF
:10528000FEF724F842464B46FEF78AF802460B46E4
:1052900030463946FDF7CCFE049E059F0246303667
:1052A0000B4605F8016B039EAE1BB74234D1FDF7E8
:1052B000C1FE42464B4606460F46FEF701FBC8B903
:1052C00042464B4630463946FEF7D2FA10B1049BAF
:1052D000DB070FD45146204600F0C0FB0023229A82
:1052E0002B700BF101031360249B002B3FF4E0AC07
:1052F0001D60DDE45F462B461D4613F8012D392A5B
:1053000006D1039A9A42F7D13022039901370A70E5
:105310001A7801321A7090E70022A34BFEF740F88A
:105320000022002306460F46FEF7A2FA00289ED070
:10533000D0E70B9A002A00F0CB80209A012A00F3D4
:10534000AD800E9A002A00F0A58003F233430A9E36
:10535000089D089A012120461A440892099A1A4485
:10536000099200F033FC074665B1099B002B09DD6B
:10537000AB42089AA8BF2B46D21AED1A0892099A96
:10538000D31A09930A9BF3B10B9B002B00F0A48066
:10539000002E10DD39463246204600F0D7FC52463A
:1053A00001460746204600F027FC8046514620462D
:1053B000C24600F053FB0A9B9A1B04D0514620467C
:1053C00000F0C4FC82460121204600F0FFFB0C9B4C
:1053D0000646002B40F382801A460146204600F024
:1053E000B5FC209B0646012B7BDD4FF0000833699E
:1053F00006EB8303186900F09BFBC0F12000099BBA
:10540000184410F01F0000F09580C0F12003042B19
:1054100040F38680C0F11C00089B034405440893B8
:10542000099B03440993089B002B05DD51461A464E
:10543000204600F0E5FC8246099B002B05DD314645
:105440001A46204600F0DCFC06460D9B002B73D06C
:105450003146504600F040FD00286DDA00235146E9
:105460000A22204600F01CFB0B9B0BF1FF3B8246FF
:10547000002B00F0AF81002339460A22204600F0BD
:105480000FFB049B0746002B00F39680209B022B0A
:105490005ADC91E0109BC3F1360358E7059B5E1E72
:1054A0000A9BB342B7BF0A9B9E1B0C9AF31ABEBF5E
:1054B0000A960026D218059BB8BF0C92002BBBBFE2
:1054C000089B059A089D9D1AACBF059B002340E7E9
:1054D0000A9E089D0B9F47E70A9A6FE7209B012BC6
:1054E00019DC069BBBB9079BC3F313039BB9079B4E
:1054F00023F000431B0D1B0583B1089B4FF00108EF
:1055000001330893099B013309930C9B002B7FF413
:105510006EAF012073E74FF00008F6E79846F4E716
:1055200081D01C33089A1A441D440892099A1A44DF
:10553000099278E70346F4E7059B002B36DC209BB5
:10554000022B33DD059B0493049B63B9314605228E
:10555000204600F0A5FA01460646504600F0BCFC85
:1055600000283FF7BAAD219B039D6FEA030B4FF074
:1055700000083146204600F071FA002F3FF4AAAE31
:10558000B8F1000F05D0B84503D04146204600F0E1
:1055900065FA3946204600F061FA9BE60026374658
:1055A000E1E7BB46374698E5000024400B9B002B03
:1055B00000F0C880059B0493002D05DD39462A467E
:1055C000204600F01DFC0746B8F1000F5BD079685B
:1055D000204600F003FA054628B9824B024640F205
:1055E000EF21FFF72BBB3A6907F10C010C300232B7
:1055F0009200FFF767FA01222946204600F000FCDE
:10560000039BB846074601330593DDE903231344A2
:105610000A93069B03F001030993059B314650460C
:10562000013B0493FFF763FA4146069000F130090D
:10563000504600F051FC3A4608903146204600F0B2
:1056400067FCC268054602BB0146504600F044FCB8
:105650000246294620460B9200F000FA209B0B9A46
:10566000059D43EA0201099B194310D1B9F1390F95
:1056700029D0089B002B02DD069B03F13109049B16
:1056800083F8009075E73846BAE70122E1E7089B06
:10569000002B04DB20990B4309990B4320D1002AEE
:1056A000EDDD51460122204600F0AAFB314682463C
:1056B00000F012FC002803DCE1D119F0010FDED06C
:1056C000B9F1390FD8D13923049A13702B461D46EE
:1056D000013B15F8012C392A6BD001321A7048E7CA
:1056E000002A07DDB9F1390FEDD009F10103049A61
:1056F00013703EE7059B0A9A03F8019C934242D03F
:10570000514600230A22204600F0CAF9B8458246D5
:105710004FF000034FF00A024146204607D100F047
:10572000BFF980460746059B0133059375E700F0F6
:10573000B7F93946804600230A22204600F0B0F926
:105740000746F0E7059B0493039D31465046FFF75B
:10575000CEF9039B00F1300905F8019BEA1A049B7E
:10576000934207DD514600230A22204600F098F9B3
:105770008246EAE7049B4FF00008002BCCBF1D4691
:105780000125039B1D4451460122204600F038FBB1
:105790003146824600F0A0FB002897DC02D119F0C8
:1057A000010F93D12B461D4613F8012D302AFAD054
:1057B000DFE6039A9A428AD10BF1010B312397E776
:1057C000094BFFF798BA249B002B7FF46CAA074B78
:1057D000FFF791BA049B002BB6DC209B022B3FF70E
:1057E000B3AEB1E7910A3408F0093408140A34085A
:1057F00037B5002943D051F8043C0C1F0190002B11
:10580000B8BFE41800F0DEF81E4A0198136833B9F7
:105810006360146003B0BDE8304000F0D9B8A34223
:1058200008D9256861198B4201BF19685B6849195D
:105830002160EDE71A465B680BB1A342FAD9116803
:105840005518A5420BD12468214454181160A34275
:10585000E0D11C685B680C4453601460DAE702D93D
:105860000C230360D6E7256861198B4202BF1968D3
:105870005B684919636008BF21605460CAE703B0E0
:1058800030BD00BF88D70B24024B0146186800F0DA
:1058900023B800BF0CD40B2470B50E4E0C46054641
:1058A000316811B900F092FE30602146284600F0C0
:1058B0008DFE431C0AD0C41C24F00304A04207D070
:1058C000211A284600F082FE013001D14FF0FF344A
:1058D000204670BD8CD70B242DE9F041CD1C074626
:1058E00025F0030508350C2D38BF0C25002D01DBF4
:1058F000A94205D90C2300263B603046BDE8F08163
:105900002F4E00F05FF833681C4644BB29463846EA
:10591000FFF7C2FF431C04464FD134682646002ED1
:1059200042D1002C43D023683146384604EB0308AB
:1059300000F04CFE80453AD1236803353846ED1A15
:1059400025F0030508350C2D38BF0C252946FFF737
:10595000A3FF01302BD023682B4423600EE0226884
:10596000521B1ED40B2A16D96119A342256018BFF9
:105970005960636808BF316062514B6004F10B06E7
:10598000384600F025F8231D26F00706F21AB4D099
:105990009B1BA350B1E76268A3420CBF32605A6000
:1059A000ECE723466468B0E734467668B7E70C2333
:1059B00038463B6000F00CF89FE72560DEE700BF4B
:1059C00088D70B240148FFF76DB800BF84D70B249C
:1059D0000148FFF768B800BF84D70B2470B5C669CB
:1059E00004460D4676B91020FFF74EFF0246E061EF
:1059F00020B9184B6B21184800F0F8FDC0E901668A
:105A00000660C660E669F36883B1E369DB6853F852
:105A10002500B8B90121204601FA05F6721D920051
:105A200000F002FE60B1C0E901560EE0212204211F
:105A3000204600F0F9FDE369F060DB68002BE4D15B
:105A4000002070BD026843F825200023C0E903331D
:105A5000F7E700BF210A3408A20A340870B5C66906
:105A600005460C4676B91020FFF70EFF0246E861A6
:105A700020B9094B8F21094800F0B8FDC0E9016643
:105A80000660C6603CB1EB696268DB6853F82210BF
:105A9000216043F8224070BD210A3408A20A34086C
:105AA0002DE9F04101F1140C07460C461E460D6924
:105AB0000020DCF80030013099B2854202FB016120
:105AC0004FEA13464FEA114389B202FB063301EB5A
:105AD00003414FEA13464CF8041BEADC0EB3A368FB
:105AE000AB4219DC616838460131FFF777FF804629
:105AF00028B902460C4BBA210C4800F077FD226908
:105B000004F10C010C3002329200FEF7DBFF21465B
:105B100044463846FFF7A2FF04EB850301355E617A
:105B200025612046BDE8F081910A3408A20A3408B4
:105B3000030C1B04D3B90004102310F07F4F04BFE3
:105B40000002083310F0704F04BF0001043310F05E
:105B5000404F04BF80000233002805DB10F0804F67
:105B600003F1010308BF2023184670470023E4E730
:105B7000036813F007020CD0D90722D49A0747BF55
:105B80005B0801229B0802224CBF036003601046A1
:105B9000704799B209B91B0C1022D9B209B9083261
:105BA0001B0A190704BF1B090432990704BF9B088D
:105BB0000232D90703D45B0802F1010203D003606B
:105BC000E5E70022E3E72022E1E7000010B50C46FC
:105BD0000121FFF703FF024628B9054B40F24511AA
:105BE000044800F003FD01234461036110BD00BFC0
:105BF000910A3408A20A34082DE9F04F91460A6947
:105C00000C4685B0D9F810309A42BEBF0B464C46C0
:105C100099462769A368D9F810A0616807EB0A06BE
:105C2000B342B8BF0131FFF7D9FE30B90246454B48
:105C30004FF4B171444800F0D9FC00F11405002282
:105C400005EB86082B46434521D304F1140304F1E8
:105C5000150103EB870709F1140303EB8A02029293
:105C60003A1B153A22F0030204328F4238BF042255
:105C70000192029A03939A420CD8002E03DD58F841
:105C8000043D002B5BD0066105B0BDE8F08F43F802
:105C9000042BD8E7B3F800A0BAF1000F24D004F128
:105CA000140EA9464FF0000C5EF8042BD9F8001032
:105CB0001FFA82FB774589B20AFB0B114FEA124BA0
:105CC000D9F8002061444FEA124C0AFB0BC202EBE8
:105CD000114289B24FEA124C41EA024149F8041BD1
:105CE000E2D8019A45F802C0039A0433B2F8029050
:105CF000B9F1000F21D0296804F1140CAE464FF021
:105D0000000ABCF800B089B2BEF8022009FB0B22E1
:105D1000524441EA02414EF8041B5CF8041B4FEA6E
:105D2000114ABEF80010674509FB0A1101EB124148
:105D30004FEA114AE5D8019AA950043599E7013E86
:105D40009BE700BF910A3408A20A34082DE9F84302
:105D5000154612F0030206460F4607D0013A254CBD
:105D6000002354F82220FFF79BFE0746AD103DD0DC
:105D7000F4697CB91020FFF787FD0246F06128B96D
:105D80001D4B40F2B3111D4800F030FCC0E9014446
:105D90000460C460D6F81C80D8F808404CB940F2C2
:105DA00071213046FFF712FF00230446C8F80800AF
:105DB00003604FF00009EB070AD53946224630460A
:105DC000FFF71AFF8046394630464746FFF746FE42
:105DD0006D100BD0206838B9224621463046FFF7B7
:105DE0000BFF2060C0F800900446E4E73846BDE8A9
:105DF000F88300BFF00B3408210A3408A20A3408E3
:105E00002DE9F0470C46074691464FEA621A23698E
:105E1000496803EB6218A36808F10106B3420BDB83
:105E20003846FFF7DBFD054648B90246284B4FF4DC
:105E3000EF71284800F0DAFB01315B00EEE7002348
:105E400000F1140100F110021846534533DB2AEA31
:105E5000EA7A04F11403206919F01F0901EB8A01A1
:105E600003EB800C2BD0C9F1200E8A460022186863
:105E700000FA09F010434AF8040B53F8042B9C4530
:105E800022FA0EF2F3D8ACEB040304F11500153B33
:105E900023F003030433844538BF0423CA500AB1F6
:105EA00008F10206013E384621462E61FFF7D6FD75
:105EB0002846BDE8F087013342F8040FC5E70439EE
:105EC00053F8042B9C4541F8042FF9D8EAE700BFAA
:105ED000910A3408A20A3408026930B50C69121B11
:105EE0000ED100F11403143103EB840001EB8401A3
:105EF00050F8045D51F8044DA54203D005D30122AA
:105F0000104630BD8342F3D3FAE74FF0FF32F7E794
:105F10002DE9F84F0C460646114692462046FFF7FB
:105F2000DBFF051E10D129463046FFF757FD30B97B
:105F30003D4B024640F237213C4800F057FB01231D
:105F4000C0E90435BDE8F88FA4BF5346A2463046E9
:105F5000A8BF0025DAF80410ACBF1C460125FFF7E6
:105F60003DFD20B9304B024640F24521E4E7DAF826
:105F7000107004F11409266900F11408C5600AF1D3
:105F800014050AF1100209EB860605EB870EC246DE
:105F90004FF0000C52F804BF59F8043B1FFA8BF184
:105FA0004E4561441FFA83FC4FEA1343A1EB0C01F9
:105FB000C3EB1B4303EB214389B24FEA234C41EA75
:105FC00003414AF8041BE5D8331B1534153B23F075
:105FD00003030433A64238BF04231D4443442C4624
:105FE0001E4674450ED30EF10302521B033D22F0F0
:105FF0000302AE4538BF0022134453F8042D8AB182
:1060000007619FE754F8048B1FFA88F26244111469
:1060100092B201EB184142EA01424FEA214C46F8A4
:10602000042BDEE7013FE8E7910A3408A20A3408AE
:106030002DE97343012190469946089EFFF7CEFC57
:10604000044630B90246254B40F20F31244800F097
:10605000CDFAC9F30A55C9F3130335BB0193B8F15F
:10606000000327D068460093FFF782FDDDE90012A8
:10607000F0B1C0F1200302FA03F3C2400B430192D6
:106080006361019B002BA36114BF022201222261E4
:10609000C5B1A5F233450544C0F135003560099A14
:1060A0001060204602B0BDE8708343F48013D5E74A
:1060B0006161E6E701A8FFF75BFD019B203001224B
:1060C0006361E4E7A0F2324004EB820330601869B8
:1060D000FFF72EFDC0EB4210E1E700BF910A340844
:1060E000A20A34089368013B002B936010B408DACD
:1060F0009469A34201DB0A2903D15DF8044BFEF742
:10610000C6BB1368581C1060084619705DF8044B34
:106110007047F8B506460F461446D518AC4201D173
:10612000002007E03A4614F8011B3046FFF7DAFF7B
:10613000431CF3D1F8BD00002DE9F04F0D469DB092
:1061400014469846064618B1036A0BB9FEF7B8FA2A
:106150006B6ED90705D4AB899A0502D4A86DFEF7FA
:10616000A1FCAB891B0701D52B699BB92946304699
:10617000FEF7CAFB70B16B6EDC0704D54FF0FF3041
:106180001DB0BDE8F08FAB899805F7D4A86DFEF778
:106190008AFCF3E70023CDF80C804FF00109DFF80B
:1061A000B881099320238DF8293030238DF82A30C7
:1061B00023469A4613F8012B0AB1252AF9D1BAEBE6
:1061C000040B0BD05B46224629463046FFF7A1FF61
:1061D000013000F0A980099A5A4409929AF80030D7
:1061E000002B00F0A18000234FF0FF320AF1010ADA
:1061F000049307938DF853301A93CDE90523544641
:106200000522554814F8011BFEF74EFC049AD8B934
:10621000D10644BF20238DF85330130744BF2B23EE
:106220008DF853309AF800302A2B15D0079A54462F
:1062300000204FF00A0C214611F8013B303B092B9E
:106240004DD9B0B1079214E0A0EB0803A24609FAB9
